0       Date de l'image de la banque de données: 2024-07-31
101005VLL'Île-d'Entrée/Entry Island                               R                                                                                                                                                                                                                                                                                                                                                                        00000178                                                                                                                                                            19650101      311N05E4716614200000042050000067740                                      G00-2420000614F7010080000004206           
101008M L'Île-du-Havre-Aubert                                     R                                                                                                                                                                                                                                                                                                                                                                        00002516                                                                                                                                                            20000614G00-24311N04E4714615100000779430000141478                                      G01-3920020101F701023000007794420030614   
10101 M Bassin                                                    R                                                                                                                                                                                                                                                                                                                                                                        00000000                                                                                                                                                            18750101                     00000389530000038953                                      G71-5119720101F70105 0000038953           
101010M L'Île-du-Havre-Aubert                                     R                                                                                                                                                                                                                                                                                                                                                                        00002485                                                                                                                                                            19711218      311N04W4714615700000737380000264104                                      G00-2420000614F7010080000073738           
101015M L'Étang-du-Nord                                           R                                                                                                                                                                                                                                                                                                                                                                        00003140                                                                                                                                                            18750101      311N05W4722615700000346220000042389                                      G01-3920020101F7010230000034622           
10102 M Havre-Aubert-Est                                          R                                                                                                                                                                                                                                                                                                                                                                        00000000                                                                                                                                                            19510101                     00000000000000000000                                      G64-4919641205M10102 0000000000           
10102 M Havre-Aubert                                              R                                                                                                                                                                                                                                                                                                                                                                        00000000                                                                                                                                                            19510101                     00000000000000000000                                      G64-5219650101D60103 0000000000           
10102 M Havre-Aubert                                              R                                                                                                                                                                                                                                                                                                                                                                        00000000                                                                                                                                                            19510101                     00000191140000019114                                      G71-5119720101F70105 0000019114           
101020VLCap-aux-Meules                                            U                                                                                                                                                                                                                                                                                                                                                                        00001571                                                                                                                                                            19500101      311N05W4723615200000031330000003133                                      G91-0719910216E8010250000000024           
101020VLCap-aux-Meules                                            U                                                                                                                                                                                                                                                                                                                                                                        00001690                                                                                                                                                            19500101      311N05W4723615200000033020000003302                                      G01-3920020101F7010230000003302           
101023M Les Îles-de-la-Madeleine                                  R                                                                                                                                                                                                                                                                                                                                                                        00013077                                                                                                                                                            20020101G01-39311N05W4723615200002033500000669530                                      G05-4720060101D601042000003973820020429   
101025M Fatima                                                    R                                                                                                                                                                                                                                                                                                                                                                        00003216                                                                                                                                                            19590101      311N05W4724615300000261580000026158                                      G91-0719910216D8010200000000024           
101025M Fatima                                                    R                                                                                                                                                                                                                                                                                                                                                                        00003017                                                                                                                                                            19590101      311N05W4724615300000258200000061300                                      G01-3920020101F7010230000025820           
101030M Le Havre aux Maisons                                      R                                                                                                                                                                                                                                                                                                                                                                        00002225                                                                                                                                                            18750101      311N05W4724614800000382540000038254                                      G93-2619930626M1010300000000000           
101030M Havre-aux-Maisons                                         R                                                                                                                                                                                                                                                                                                                                                                        00002249                                                                                                                                                            18750101      311N05W4724614800000350210000121544                                      G01-3920020101F7010230000035022           
101035M Grande-Entrée                                             R                                                                                                                                                                                                                                                                                                                                                                        00000704                                                                                                                                                            19290805      311N12E4733613400000070080000007202                                      G01-3920020101F7010230000007009           
10104 M L'Étang-du-Nord                                           R                                                                                                                                                                                                                                                                                                                                                                        00000000                                                                                                                                                            18750101                     00000000000000000000                                      G68-5819690101D80106 0000000000           
101040M Grosse-Île                                                R                                                                                                                                                                                                                                                                                                                                                                        00000577                                                                                                                                                            18930101      311N12E4737613100000397370000101949                                      G01-3920020101F7010230000039738           
10106 V Cap-aux-Meules                                            R                                                                                                                                                                                                                                                                                                                                                                        00000976                                                                                                                                                            19500101                     00000000000000000000                                      G68-5819690101E80104 0000000000           
10109 M Havre-aux-Maisons                                         R                                                                                                                                                                                                                                                                                                                                                                        00002025                                                                                                                                                            18750101                     00000038250000003825                                      G76-5319770101E80111 0000011010           
10111 M Grande-Entrée                                             R                                                                                                                                                                                                                                                                                                                                                                        00000000                                                                                                                                                            19290805                     00000184700000018470                                      G76-5319770101D80109 0000011010           
101150VLÎle-d'Entrée                                              R                                                                                                                                                                                                                                                                                                                                                                        00000000                                                                                                                                                            19650101      311N05E4716614200000041950000004195                                      G8729A19870718M1011500000000000           
101180M Île-du-Havre-Aubert                                       R                                                                                                                                                                                                                                                                                                                                                                        00000000                                                                                                                                                            19711218      311N04W4714615700000580670000058067                                      G8729A19870718M1011800000000000           
102005V Percé                                                     R                                                                                                                                                                                                                                                                                                                                                                        00003042                                                                                                                                                            19710101      122A09 4831641200004317470000555014                                      G21-5220211226D8020100000000301           
102010M Sainte-Thérèse-de-Gaspé                                   R                                                                                                                                                                                                                                                                                                                                                                        00001012                                                                                                                                                            19300906      322A08 4824642300000348690000034939                                      G21-5220211226E8020050000000301           
102020M Saint-François-de-Pabos                                   R                                                                                                                                                                                                                                                                                                                                                                        00000720                                                                                                                                                            19290318      322A07E4823643900000452700000045270                                      G01-2620010627F7020280000045271           
102025M Pabos                                                     R                                                                                                                                                                                                                                                                                                                                                                        00001514                                                                                                                                                            18760101      322A07E4822643700001347530000134753                                      G01-2620010627F7020280000134753           
102028V Pabos                                                     R                                                                                                                                                                                                                                                                                                                                                                        00009020                                                                                                                                                            20010627G01-26222A07E4821644100004273840000427384                                      G02-1820020504M1020280000000000           
102030V Chandler                                                  R                                                                                                                                                                                                                                                                                                                                                                        00003416                                                                                                                                                            19160113      122A07E4821644100000176930000017693                                      G01-2620010627F7020280000017693           
102035M Pabos Mills                                               R                                                                                                                                                                                                                                                                                                                                                                        00001605                                                                                                                                                            19520101      322A07E4818644200000184590000018459                                      G01-2620010627F7020280000018459           
102040M Newport                                                   R                                                                                                                                                                                                                                                                                                                                                                        00002064                                                                                                                                                            18550701      322A07W4816644500002112090000211209                                      G01-2620010627F7020280000211210           
102045P Sainte-Germaine-de-l'Anse-aux-Gascons                     R                                                                                                                                                                                                                                                                                                                                                                        00001303                                                                                                                                                            19020101      322A02W4812645200001153180000115318                                      G01-0320010117F7020470000115329           
102050M Port-Daniel                                               R                                                                                                                                                                                                                                                                                                                                                                        00001785                                                                                                                                                            19900418      322A02W4810645900001851520000185152                                      G01-0320010117F7020470000185152           
10208 M Petit-Pabos                                               R                                                                                                                                                                                                                                                                                                                                                                        00000000                                                                                                                                                            19550101                     00000122760000012276                                      G74-3819740921F70213 000001227619921118   
10211 M Grande-Rivière                                            R                                                                                                                                                                                                                                                                                                                                                                        00000000                                                                                                                                                            18550701                     00000000000000000000                                      G67-0319670121F70215 000000000019921118   
10212 VLGrande-Rivière                                            U                                                                                                                                                                                                                                                                                                                                                                        00000000                                                                                                                                                            19311219                     00000000000000000000                                      G67-0319670121F70215 000000000019921118   
10214 M Grande-Rivière-Ouest                                      R                                                                                                                                                                                                                                                                                                                                                                        00000000                                                                                                                                                            19320611                     00000464900000046490                                      G74-3819740921F70213 000004649019921118   
10215 M Grande-Rivière                                            R                                                                                                                                                                                                                                                                                                                                                                        00000000                                                                                                                                                            19670121G67-03               00000283860000028386                                      G74-3819740921F70213 000002838619921118   
10218 M Cap-d'Espoir                                              R                                                                                                                                                                                                                                                                                                                                                                        00000000                                                                                                                                                            18680224                     00000897690000089769                                      L71-6619710101F70220 000008976919921118   
10219 M Percé                                                     R                                                                                                                                                                                                                                                                                                                                                                        00000000                                                                                                                                                            18550701                     00000889400000088940                                      L71-6619710101F70220 000008894019921118   
10221 M Bridgeville                                               R                                                                                                                                                                                                                                                                                                                                                                        00000000                                                                                                                                                            19330311                     00001181550000118155                                      L71-6619710101F70220 000011815519921118   
10222 M Barachois                                                 R                                                                                                                                                                                                                                                                                                                                                                        00000000                                                                                                                                                            18761228                     00000896130000089613                                      L71-6619710101F70220 000008961319921118   
10224 P Saint-Pierre-de-la-Malbaie   No 2                         R                                                                                                                                                                                                                                                                                                                                                                        00000000                                                                                                                                                            18761228                     00000414650000041465                                      L71-6619710101F70220 000004146519921118   
10226 CTDouglas                                                   R                                                                                                                                                                                                                                                                                                                                                                        00000000                                                                                                                                                            18550701                     00000859350000085935                                      L70-7619710101F70230 000008593519921118   
10228 M York                                                      R                                                                                                                                                                                                                                                                                                                                                                        00000000                                                                                                                                                            18660815                     00002123790000212379                                      L70-7619710101F70230 000021237919921118   
10229 M Haldimand                                                 R                                                                                                                                                                                                                                                                                                                                                                        00000000                                                                                                                                                            18550701                     00000271430000027143                                      L70-7619710101F70230 000002714319921118   
10231 M Baie-de-Gaspé-Sud                                         R                                                                                                                                                                                                                                                                                                                                                                        00000000                                                                                                                                                            18550701                     00001211070000121107                                      L70-7619710101F70230 000012110719921118   
10232 V Gaspé                                                     U                                                                                                                                                                                                                                                                                                                                                                        00000000                                                                                                                                                            18740101                     00000077690000007769                                      L70-7619710101F70230 000000776919921118   
10234 M Grande-Grève                                              R                                                                                                                                                                                                                                                                                                                                                                        00000000                                                                                                                                                            18700201                     00000346790000034679                                      L70-7619710101F70230 000003467919921118   
10236 CTBaie-de-Gaspé-Nord                                        R                                                                                                                                                                                                                                                                                                                                                                        00000000                                                                                                                                                            18550701                     00000750060000075006                                      L70-7619710101F70230 000007500619921118   
10238 M Sydenham-Sud                                              R                                                                                                                                                                                                                                                                                                                                                                        00000000                                                                                                                                                            19210722                     00000000000000000000                                      G66-5119661224M10238 000000000019921118   
10238 M Saint-Majorique                                           R                                                                                                                                                                                                                                                                                                                                                                        00000000                                                                                                                                                            19210722                     00000743840000074384                                      L70-7619710101F70230 000007438419921118   
10239 M Saint-Alban-du-Cap-des-Rosiers                            R                                                                                                                                                                                                                                                                                                                                                                        00000000                                                                                                                                                            18960101                     00000482510000048251                                      L70-7619710101F70230 000004825119921118   
10241 M L'Anse-aux-Griffons                                       R                                                                                                                                                                                                                                                                                                                                                                        00000000                                                                                                                                                            18700201                     00000510220000051022                                      L70-7619710101F70230 000005102219921118   
10242 M Rivière-au-Renard                                         U                                                                                                                                                                                                                                                                                                                                                                        00000000                                                                                                                                                            18550701                     00001492350000149235                                      L70-7619710101F70230 000014923519921118   
10244 P Saint-Maurice                                             R                                                                                                                                                                                                                                                                                                                                                                        00000000                                                                                                                                                            19230523                     00000623660000062366                                      L70-7619710101F70230 000006236619921118   
102900NOGaspé-Est, partie Saint-Gabriel-de-Gaspé                  R                                                                                                                                                                                                                                                                                                                                                                        00000000                                                                                                                                                            18550701      3              00037580900003758090                                            19860101F0029090001976780           
102900NOGaspé-Est, partie Saint-Gabriel-de-Gaspé                  R                                                                                                                                                                                                                                                                                                                                                                        00000000                                                                                                                                                            18550701                     00000000000000000000                                            19860101F0029190001781310           
102909NOGaspé-Est, partie Mont-Alexandre                          R                                                                                                                                                                                                                                                                                                                                                                        00000000                                                                                                                                                            18550701      3              00019767800001976780                                      G8635A19860830M1029090000000000           
102919NOGaspé-Est, partie Rivière-Saint-Jean                      R                                                                                                                                                                                                                                                                                                                                                                        00000000                                                                                                                                                            18550701      3              00017813100001781310                                      G8635A19860830M1029190000000000           
10301 VTMurdochville                                              U                                                                                                                                                                                                                                                                                                                                                                        00003300                                                                                                                                                            19530715                     00000000000000000000                                      L6711719670629E80392 0000000000           
103020P Grande-Vallée                                             R                                                                                                                                                                                                                                                                                                                                                                        00001287                                                                                                                                                            19270915      322H03E4913650800001419290000141929                                      G05-0220050115M2030200000000000           
10308 M Duchesnay                                                 R                                                                                                                                                                                                                                                                                                                                                                        00000000                                                                                                                                                            19231218                     00000000000000000000                                      G68-3019680727M10308 000000000019921118   
10314 M Sainte-Anne-des-Monts                                     U                                                                                                                                                                                                                                                                                                                                                                        00000000                                                                                                                                                            18550701                     00000000000000000000                                      G68-1619680420M20314 000000000019921118   
10316 P Saint-Norbert-du-Cap-Chat                                 R                                                                                                                                                                                                                                                                                                                                                                        00000000                                                                                                                                                            18850101                     00000000000000000000                                      G68-4219681019F70317 000000000019921118   
10318 VLCap-Chat                                                  U                                                                                                                                                                                                                                                                                                                                                                        00000000                                                                                                                                                            19260406                     00000000000000000000                                      G68-4219681019F70317 000000000019921118   
103580M La Martre                                                 R                                                                                                                                                                                                                                                                                                                                                                        00000383                                                                                                                                                            19231218      322G01E4910661500001553990000155399                                      G89-4019891007E8039190000030300           
103630P Saint-Joachim-de-Tourelle                                 R                                                                                                                                                                                                                                                                                                                                                                        00000000                                                                                                                                                            19231218      322G01W4909662500000806780000080678                                      G84-5019841215M3036300000000000           
103630M Tourelle                                                  R                                                                                                                                                                                                                                                                                                                                                                        00001663                                                                                                                                                            19231218      322G01W4909662500000806780000080678                                      G89-4019891007E8039190000076900           
103680V Sainte-Anne-des-Monts                                     R                                                                                                                                                                                                                                                                                                                                                                        00006008                                                                                                                                                            18550701      222G01W4908663000001062670000106267                                      G88-3919880924D8037300000000210           
103730V Cap-Chat                                                  R                                                                                                                                                                                                                                                                                                                                                                        00003202                                                                                                                                                            19681019      222G02E4906664100001280750000128075                                      G88-3919880924E8036800000000210           
103900NOGaspé-Ouest, partie Mont-Jacques-Cartier                  R                                                                                                                                                                                                                                                                                                                                                                        00000000                                                                                                                                                            18550701                     00000000000000000000                                            19860101F0039090000754790           
103900NOGaspé-Ouest, partie Mont-Jacques-Cartier                  R                                                                                                                                                                                                                                                                                                                                                                        00000000                                                                                                                                                            18550701      3              00044695600004469560                                            19860101F0039190003618780           
103909NOGaspé-Ouest, partie Collines-du-Basque                    R                                                                                                                                                                                                                                                                                                                                                                        00000006                                                                                                                                                            18550701      3              00007547900000754790                                      G8635A19860830M1039090000000000           
103919NOGaspé-Ouest, partie Mont-Albert                           R                                                                                                                                                                                                                                                                                                                                                                        00000240                                                                                                                                                            18550701      3              00035115800003511580                                      G8635A19860830M1039190000000000           
103919NOGaspé-Ouest, partie Mont-Albert                           R                                                                                                                                                                                                                                                                                                                                                                        00000240                                                                                                                                                            18550701      3              00036187800003618780                                      G89-4019891007D8035800000030300           
103919NOGaspé-Ouest, partie Mont-Albert                           R                                                                                                                                                                                                                                                                                                                                                                        00000000                                                                                                                                                            18550701                     00000000000000000000                                      G89-4019891007D8036300000076900           
10392 NOTNO, Gaspé-Ouest partie Est                               R                                                                                                                                                                                                                                                                                                                                                                        00000000                                                                                                                                                            18550701                     00000000000000000000                                      L6711719670629D80301 0000000000           
103930NOTNO, Gaspé-Ouest partie Est                               R                                                                                                                                                                                                                                                                                                                                                                        00000000                                                                                                                                                            18550701                     00000000000000000000                                            19810101F7039000000879560           
103950NOTNO, Gaspé-Ouest partie Ouest                             R                                                                                                                                                                                                                                                                                                                                                                        00000000                                                                                                                                                            18550701                     00000000000000000000                                            19810101F7039000003407209           
103980NOTNO, Gaspé-Ouest partie Nord                              R                                                                                                                                                                                                                                                                                                                                                                        00000000                                                                                                                                                            18550701                     00000000000000000000                                            19810101F7039000000191659           
104035M Tourelle                                                  R                                                                                                                                                                                                                                                                                                                                                                        00001593                                                                                                                                                            19231218      322G01W4909662500001574020000157402                                      G00-0520000202F7040370000157403           
104037V Sainte-Anne-des-Monts--Tourelle                           R                                                                                                                                                                                                                                                                                                                                                                        00006917                                                                                                                                                            20000202G00-05222G01W4908663000002640230000264023                                      G01-0620010210M1040370000000000           
104040V Sainte-Anne-des-Monts                                     R                                                                                                                                                                                                                                                                                                                                                                        00005714                                                                                                                                                            18550701      222G01W4908663000001066210000106621                                      G00-0520000202F7040370000106621           
104045V Cap-Chat                                                  R                                                                                                                                                                                                                                                                                                                                                                        00002896                                                                                                                                                            19681019      222G02E4906664100001269300000126930                                      G00-1120000315F7040470000126931           
104050M Capucins                                                  R                                                                                                                                                                                                                                                                                                                                                                        00000285                                                                                                                                                            19150101      322G02W4903665000000543410000054341                                      G00-1120000315F7040470000054342           
10414 M Paspébiac-Ouest                                           R                                                                                                                                                                                                                                                                                                                                                                        00000000                                                                                                                                                            19220530      322A03W4801651600000425530000042553                                      G64-5219650101D60416 0000000000           
104150CTPort-Daniel-Partie-Est                                    R                                                                                                                                                                                                                                                                                                                                                                        00000900                                                                                                                                                            18840101      322A02W4811645800000255630000025563                                      G90-1619900418F7041700000025563           
104160CTPort-Daniel-Partie-Ouest                                  R                                                                                                                                                                                                                                                                                                                                                                        00001096                                                                                                                                                            18550701      322A02W4810645900001605270000160527                                      G90-1619900418F7041700000160527           
10418 M New-Carlisle                                              R                                                                                                                                                                                                                                                                                                                                                                        00000000                                                                                                                                                            18770201      322A03W4801652000000661480000066148                                      G64-5219650101D60416 0000000000           
10419 M Bonaventure                                               R                                                                                                                                                                                                                                                                                                                                                                        00000000                                                                                                                                                            18840101      322A03W4803652900001717940000171794                                      G64-5219650101D60416 0000000000           
10422 P Saint-Charles-de-Caplan                                   R                                                                                                                                                                                                                                                                                                                                                                        00000000                                                                                                                                                            18750101                     00000000000000000000                                      G64-1219640321M30422 000000000019921118   
10426 CTNew Richmond                                              R                                                                                                                                                                                                                                                                                                                                                                        00000000                                                                                                                                                            18550701                     00001686340000168634                                      G69-5019691213M20426 000000000019921118   
10429 CTMaria                                                     R                                                                                                                                                                                                                                                                                                                                                                        00000000                                                                                                                                                            18550701      322A04W4810655900000963470000096347                                      G77-0119770115M20429 0000000000           
10432 CTCarleton                                                  R                                                                                                                                                                                                                                                                                                                                                                        00000000                                                                                                                                                            18550701                     00000000000000000000                                      G64-5119650101D80434 0000000000           
10432 CTCarleton                                                  R                                                                                                                                                                                                                                                                                                                                                                        00000000                                                                                                                                                            18550701                     00001324260000132426                                      G72-3419720826F70435 000013242619921118   
10434 M Carleton-sur-Mer                                          R                                                                                                                                                                                                                                                                                                                                                                        00001325                                                                                                                                                            19270912                     00000000000000000000                                      G64-5119650101E80432 0000000000           
10434 M Carleton-sur-Mer                                          R                                                                                                                                                                                                                                                                                                                                                                        00001325                                                                                                                                                            19270912                     00000000000000000000                                      G64-5119650101E80436 0000000000           
10434 M Carleton-sur-Mer                                          R                                                                                                                                                                                                                                                                                                                                                                        00000000                                                                                                                                                            19270912                     00000199170000019917                                      G72-3419720826F70435 000001991719921118   
10436 P Saint-Omer                                                R                                                                                                                                                                                                                                                                                                                                                                        00000000                                                                                                                                                            19020122                     00000000000000000000                                      G64-5119650101D80434 0000000000           
10441 CTMann                                                      R                                                                                                                                                                                                                                                                                                                                                                        00000000                                                                                                                                                            18550701                     00002819720000281972                                      G70-1119700314M30441 000000000019921118   
10448 P Saint-Laurent-de-Matapédia                                R                                                                                                                                                                                                                                                                                                                                                                        00000000                                                                                                                                                            19060101                     00000707580000070758                                      G73-4619731117M10448 000000000019921118   
10451 P Saint-François-d'Assise                                   R                                                                                                                                                                                                                                                                                                                                                                        00000000                                                                                                                                                            19260903                     00000000000000000000                                      G67-5219680101D60453 0000000000           
104580M Pointe-à-la-Croix                                         R                                                                                                                                                                                                                                                                                                                                                                        00000000                                                                                                                                                            18550701      322B02E4805664000002819720000281972                                      G83-1819830507F7046000000281972           
104630M Saint-Fidèle-de-Ristigouche                               R                                                                                                                                                                                                                                                                                                                                                                        00000000                                                                                                                                                            19370918      322B02W4806665100001133120000113312                                      G83-1819830507F7046000000113312           
104640CTRistigouche                                               R                                                                                                                                                                                                                                                                                                                                                                        00000213                                                                                                                                                            19070101      322B02W4804665500001460750000146075                                      G89-1419890408M3046400000000000           
104820R Maria                                                     R                                                                                                                                                                                                                                                                                                                                                                        00000349                                                                                                                                                            18550701      522A04W4812655600000018270000001827                                      G9041A19901020M1048200000000000           
104909NOBonaventure, partie Rivière-Bonaventure                   R                                                                                                                                                                                                                                                                                                                                                                        00000037                                                                                                                                                            18550701      3              00031380500003138050                                      G8635A19860830M1049090000000000           
10491 P Bonaventure, partie Est                                   R                                                                                                                                                                                                                                                                                                                                                                        00000000                                                                                                                                                            18550701      321N12W4747696900000011110000001111                                      G64-5219650101D60416 0000000000           
104919NOBonaventure, partie Rivière-Nouvelle                      R                                                                                                                                                                                                                                                                                                                                                                        00000000                                                                                                                                                            18550701      3              00011173500001117350                                      G8635A19860830M1049190000000000           
104920NOTNO, Bonaventure, partie Centre-Est                       R                                                                                                                                                                                                                                                                                                                                                                        00000000                                                                                                                                                            18550701                     00000000000000000000                                            19810101F7049400001531202           
104930NOTNO, Bonaventure, partie Est                              R                                                                                                                                                                                                                                                                                                                                                                        00000000                                                                                                                                                            18550701                     00000000000000000000                                            19810101F7049400002724203           
104940NOBonaventure, partie Robidoux                              R                                                                                                                                                                                                                                                                                                                                                                        00000000                                                                                                                                                            18550701      3              00042550420004255042                                            19860101F0049090004255042           
104950NOBonaventure, partie Ruisseau-Ferguson                     R                                                                                                                                                                                                                                                                                                                                                                        00000000                                                                                                                                                            18550701      3              00006806500000680650                                      G8635A19860830M1049500000000000           
10496 NOTNO, Bonaventure partie Sud-Ouest                         R                                                                                                                                                                                                                                                                                                                                                                        00000000                                                                                                                                                            18550701                     00000000000000000000                                      G67-5219680101D60453 0000000000           
104970NOBonaventure, partie Routhierville                         R                                                                                                                                                                                                                                                                                                                                                                        00000064                                                                                                                                                            18550701      3              00006433600000643360                                      G8635A19860830M1049700000000000           
104980NOTNO, Bonaventure partie Sud-Ouest                         R                                                                                                                                                                                                                                                                                                                                                                        00000000                                                                                                                                                            18550701                     00000000000000000000                                            19810101F7049500000249675           
104990NOTNO, Bonaventure partie Nord-Ouest                        R                                                                                                                                                                                                                                                                                                                                                                        00000000                                                                                                                                                            18550701                     00000000000000000000                                            19810101F7049500000430974           
105030M Paspébiac                                                 R                                                                                                                                                                                                                                                                                                                                                                        00002996                                                                                                                                                            18770201      322A03W4802651500000531840000053184                                      G97-3419970820F7050320000053184           
105032M Paspébiac                                                 R                                                                                                                                                                                                                                                                                                                                                                        00003706                                                                                                                                                            19970820G97-34322A03W4802651500000957500000095750                                      G99-1819990501M5050320000000000           
105035M Paspébiac-Ouest                                           R                                                                                                                                                                                                                                                                                                                                                                        00000721                                                                                                                                                            19220530      322A03W4801651600000425650000042565                                      G97-3419970820F7050320000042566           
105045M Bonaventure                                               R                                                                                                                                                                                                                                                                                                                                                                        00002934                                                                                                                                                            18840101      322A03W4803652900001054110000105411                                      G97-1819970503M5050450000000000           
105055P Saint-Siméon                                              R                                                                                                                                                                                                                                                                                                                                                                        00001200                                                                                                                                                            19150101      322A04 4804653400000566720000056793                                      G21-2520210619D8050600000000001           
10506 VLCausapscal                                                U                                                                                                                                                                                                                                                                                                                                                                        00000000                                                                                                                                                            19280111                     00000000000000000000                                      G65-5219651224M20506 000000000019921118   
105060M Caplan                                                    R                                                                                                                                                                                                                                                                                                                                                                        00002016                                                                                                                                                            18750101      322A04 4806654000000856960000085715                                      G21-2420210612E8059900000000006           
105060M Caplan                                                    R                                                                                                                                                                                                                                                                                                                                                                        00002016                                                                                                                                                            18750101      322A04 4806654000000857020000085721                                      G21-2520210619E8050550000000001           
105075M Grande-Cascapédia                                         R                                                                                                                                                                                                                                                                                                                                                                        00000265                                                                                                                                                            19291109      322A05W4815655400000620420000062042                                      G99-2219990602F7050770000062042           
105077M Cascapédia                                                R                                                                                                                                                                                                                                                                                                                                                                        00000681                                                                                                                                                            19990602G99-22322A05W4815655500001612530000161253                                      G00-2520000626M1050770000000000           
105080M Saint-Jules                                               R                                                                                                                                                                                                                                                                                                                                                                        00000419                                                                                                                                                            19490111      322A05W4815655500000992100000099210                                      G99-2219990602F7050770000099211           
10509 P Saint-Tharcisius                                          R                                                                                                                                                                                                                                                                                                                                                                        00000000                                                                                                                                                            19371204                     00000000000000000000                                      G64-5119650101D60510 0000000000           
10511 P Saint-Benoît-Joseph-Labre                                 R                                                                                                                                                                                                                                                                                                                                                                        00000000                                                                                                                                                            18900520                     00000000000000000000                                      G64-5119650101D60510 0000000000           
10511 P Saint-Benoît-Joseph-Labre                                 R                                                                                                                                                                                                                                                                                                                                                                        00000000                                                                                                                                                            18900520                     00001176780000117678                                      G74-3119740803D80514 000000006219950605   
10514 VLAmqui                                                     U                                                                                                                                                                                                                                                                                                                                                                        00000000                                                                                                                                                            19070101                     00000000000000000000                                      G61-4919611209M20514 000000000019921118   
10514 VTAmqui                                                     U                                                                                                                                                                                                                                                                                                                                                                        00003850                                                                                                                                                            19070101                     00000003700000000370                                      G74-3119740803E80511 000000006219950605   
10539 P Saint-Damase                                              R                                                                                                                                                                                                                                                                                                                                                                        00000000                                                                                                                                                            18860101                     00001185600000118560                                      G79-5219800101D80624 0000002300           
105420V Amqui                                                     U                                                                                                                                                                                                                                                                                                                                                                        00000000                                                                                                                                                            19070101      222B06W4828672600000038500000003850                                      G81-1219810321E8054400000000770           
105420V Amqui                                                     U                                                                                                                                                                                                                                                                                                                                                                        00000000                                                                                                                                                            19070101      222B06W4828672600000038500000003850                                      G84-2419840616E8054400000001200           
105420V Amqui                                                     U                                                                                                                                                                                                                                                                                                                                                                        00004249                                                                                                                                                            19070101      222B06W4828672600000050500000005050                                      G87-3419870822E8054400000000950           
